{
  "contractName": "High_low",
  "abi": [
    {
      "constant": true,
      "inputs": [
        {
          "name": "",
          "type": "uint256"
        }
      ],
      "name": "result_map",
      "outputs": [
        {
          "name": "is_result_published",
          "type": "bool"
        },
        {
          "name": "final_option",
          "type": "uint256"
        }
      ],
      "payable": false,
      "stateMutability": "view",
      "type": "function"
    },
    {
      "constant": true,
      "inputs": [
        {
          "name": "",
          "type": "address"
        },
        {
          "name": "",
          "type": "uint256"
        }
      ],
      "name": "trader_betted_games",
      "outputs": [
        {
          "name": "",
          "type": "uint256"
        }
      ],
      "payable": false,
      "stateMutability": "view",
      "type": "function"
    },
    {
      "constant": true,
      "inputs": [
        {
          "name": "",
          "type": "address"
        }
      ],
      "name": "maximum_expiry_time_of_bet",
      "outputs": [
        {
          "name": "",
          "type": "uint256"
        }
      ],
      "payable": false,
      "stateMutability": "view",
      "type": "function"
    },
    {
      "constant": true,
      "inputs": [
        {
          "name": "",
          "type": "address"
        }
      ],
      "name": "valid_trader",
      "outputs": [
        {
          "name": "",
          "type": "bool"
        }
      ],
      "payable": false,
      "stateMutability": "view",
      "type": "function"
    },
    {
      "constant": true,
      "inputs": [
        {
          "name": "",
          "type": "address"
        },
        {
          "name": "",
          "type": "uint256"
        }
      ],
      "name": "struct_index_of_bet_of_trader",
      "outputs": [
        {
          "name": "",
          "type": "uint256"
        }
      ],
      "payable": false,
      "stateMutability": "view",
      "type": "function"
    },
    {
      "constant": true,
      "inputs": [
        {
          "name": "",
          "type": "address"
        }
      ],
      "name": "broker_map",
      "outputs": [
        {
          "name": "stake_amount",
          "type": "uint256"
        }
      ],
      "payable": false,
      "stateMutability": "view",
      "type": "function"
    },
    {
      "constant": true,
      "inputs": [
        {
          "name": "",
          "type": "uint256"
        }
      ],
      "name": "broker_addresses",
      "outputs": [
        {
          "name": "",
          "type": "address"
        }
      ],
      "payable": false,
      "stateMutability": "view",
      "type": "function"
    },
    {
      "constant": true,
      "inputs": [
        {
          "name": "",
          "type": "uint256"
        }
      ],
      "name": "game_id_map_broker",
      "outputs": [
        {
          "name": "",
          "type": "address"
        }
      ],
      "payable": false,
      "stateMutability": "view",
      "type": "function"
    },
    {
      "constant": true,
      "inputs": [
        {
          "name": "",
          "type": "address"
        },
        {
          "name": "",
          "type": "uint256"
        }
      ],
      "name": "struct_index_of_bet_of_broker",
      "outputs": [
        {
          "name": "",
          "type": "uint256"
        }
      ],
      "payable": false,
      "stateMutability": "view",
      "type": "function"
    },
    {
      "constant": true,
      "inputs": [
        {
          "name": "",
          "type": "address"
        }
      ],
      "name": "game_number",
      "outputs": [
        {
          "name": "",
          "type": "uint256"
        }
      ],
      "payable": false,
      "stateMutability": "view",
      "type": "function"
    },
    {
      "constant": true,
      "inputs": [
        {
          "name": "",
          "type": "uint256"
        },
        {
          "name": "",
          "type": "uint256"
        }
      ],
      "name": "game_id_map_trader",
      "outputs": [
        {
          "name": "bet_amount",
          "type": "uint256"
        },
        {
          "name": "better_address",
          "type": "address"
        },
        {
          "name": "option",
          "type": "bool"
        }
      ],
      "payable": false,
      "stateMutability": "view",
      "type": "function"
    },
    {
      "constant": true,
      "inputs": [],
      "name": "game_id",
      "outputs": [
        {
          "name": "",
          "type": "uint256"
        }
      ],
      "payable": false,
      "stateMutability": "view",
      "type": "function"
    },
    {
      "constant": true,
      "inputs": [
        {
          "name": "",
          "type": "uint256"
        }
      ],
      "name": "total_bet_amount",
      "outputs": [
        {
          "name": "",
          "type": "uint256"
        }
      ],
      "payable": false,
      "stateMutability": "view",
      "type": "function"
    },
    {
      "constant": true,
      "inputs": [
        {
          "name": "",
          "type": "address"
        },
        {
          "name": "",
          "type": "uint256"
        }
      ],
      "name": "game_set_map",
      "outputs": [
        {
          "name": "game_ids",
          "type": "uint256"
        },
        {
          "name": "stock_name",
          "type": "string"
        },
        {
          "name": "strike_price",
          "type": "uint256"
        },
        {
          "name": "expiry_time",
          "type": "uint256"
        }
      ],
      "payable": false,
      "stateMutability": "view",
      "type": "function"
    },
    {
      "constant": true,
      "inputs": [
        {
          "name": "",
          "type": "uint256"
        }
      ],
      "name": "gamers_map",
      "outputs": [
        {
          "name": "",
          "type": "uint256"
        }
      ],
      "payable": false,
      "stateMutability": "view",
      "type": "function"
    },
    {
      "constant": true,
      "inputs": [],
      "name": "admin",
      "outputs": [
        {
          "name": "",
          "type": "address"
        }
      ],
      "payable": false,
      "stateMutability": "view",
      "type": "function"
    },
    {
      "inputs": [],
      "payable": true,
      "stateMutability": "payable",
      "type": "constructor"
    },
    {
      "payable": true,
      "stateMutability": "payable",
      "type": "fallback"
    },
    {
      "anonymous": false,
      "inputs": [
        {
          "indexed": false,
          "name": "_sender",
          "type": "address"
        },
        {
          "indexed": false,
          "name": "_receiver",
          "type": "address"
        },
        {
          "indexed": false,
          "name": "_transfer_amount",
          "type": "uint256"
        }
      ],
      "name": "Transfer_amount",
      "type": "event"
    },
    {
      "constant": true,
      "inputs": [],
      "name": "view_stake",
      "outputs": [
        {
          "name": "",
          "type": "uint256"
        }
      ],
      "payable": false,
      "stateMutability": "view",
      "type": "function"
    },
    {
      "constant": true,
      "inputs": [],
      "name": "check_broker",
      "outputs": [
        {
          "name": "",
          "type": "bool"
        }
      ],
      "payable": false,
      "stateMutability": "view",
      "type": "function"
    },
    {
      "constant": false,
      "inputs": [],
      "name": "add_broker",
      "outputs": [
        {
          "name": "",
          "type": "bool"
        }
      ],
      "payable": true,
      "stateMutability": "payable",
      "type": "function"
    },
    {
      "constant": true,
      "inputs": [],
      "name": "length_of_broker_addresses",
      "outputs": [
        {
          "name": "",
          "type": "uint256"
        }
      ],
      "payable": false,
      "stateMutability": "view",
      "type": "function"
    },
    {
      "constant": true,
      "inputs": [
        {
          "name": "_index",
          "type": "uint256"
        }
      ],
      "name": "get_broker_address",
      "outputs": [
        {
          "name": "",
          "type": "address"
        }
      ],
      "payable": false,
      "stateMutability": "view",
      "type": "function"
    },
    {
      "constant": true,
      "inputs": [],
      "name": "check_admin",
      "outputs": [
        {
          "name": "",
          "type": "bool"
        }
      ],
      "payable": false,
      "stateMutability": "view",
      "type": "function"
    },
    {
      "constant": true,
      "inputs": [],
      "name": "length_of_trader_betted_games",
      "outputs": [
        {
          "name": "",
          "type": "uint256"
        }
      ],
      "payable": false,
      "stateMutability": "view",
      "type": "function"
    },
    {
      "constant": false,
      "inputs": [
        {
          "name": "_stock_name",
          "type": "string"
        },
        {
          "name": "_strike_price",
          "type": "uint256"
        },
        {
          "name": "_expiry_time",
          "type": "uint256"
        }
      ],
      "name": "broker_set_game",
      "outputs": [
        {
          "name": "",
          "type": "bool"
        },
        {
          "name": "",
          "type": "uint256"
        }
      ],
      "payable": true,
      "stateMutability": "payable",
      "type": "function"
    },
    {
      "constant": false,
      "inputs": [],
      "name": "add_broker_stake",
      "outputs": [
        {
          "name": "",
          "type": "bool"
        },
        {
          "name": "",
          "type": "uint256"
        }
      ],
      "payable": true,
      "stateMutability": "payable",
      "type": "function"
    },
    {
      "constant": true,
      "inputs": [],
      "name": "check_trader",
      "outputs": [
        {
          "name": "",
          "type": "bool"
        }
      ],
      "payable": false,
      "stateMutability": "view",
      "type": "function"
    },
    {
      "constant": false,
      "inputs": [
        {
          "name": "_game_id",
          "type": "uint256"
        },
        {
          "name": "_choice",
          "type": "uint256"
        }
      ],
      "name": "betting",
      "outputs": [
        {
          "name": "",
          "type": "bool"
        }
      ],
      "payable": true,
      "stateMutability": "payable",
      "type": "function"
    },
    {
      "constant": false,
      "inputs": [
        {
          "name": "_game_id",
          "type": "uint256"
        },
        {
          "name": "result_options",
          "type": "uint256"
        }
      ],
      "name": "admin_setting_result_and_distribute_money",
      "outputs": [
        {
          "name": "",
          "type": "bool"
        }
      ],
      "payable": true,
      "stateMutability": "payable",
      "type": "function"
    },
    {
      "constant": false,
      "inputs": [
        {
          "name": "_game_id",
          "type": "uint256"
        }
      ],
      "name": "trader_increase_bet_amount",
      "outputs": [
        {
          "name": "",
          "type": "bool"
        }
      ],
      "payable": true,
      "stateMutability": "payable",
      "type": "function"
    },
    {
      "constant": false,
      "inputs": [
        {
          "name": "_game_id",
          "type": "uint256"
        },
        {
          "name": "input_amount",
          "type": "uint256"
        }
      ],
      "name": "trader_decrease_bet_amount",
      "outputs": [
        {
          "name": "",
          "type": "bool"
        }
      ],
      "payable": true,
      "stateMutability": "payable",
      "type": "function"
    },
    {
      "constant": false,
      "inputs": [
        {
          "name": "_game_id",
          "type": "uint256"
        }
      ],
      "name": "trader_cancel_bet_and_widthdraw",
      "outputs": [
        {
          "name": "",
          "type": "bool"
        }
      ],
      "payable": true,
      "stateMutability": "payable",
      "type": "function"
    },
    {
      "constant": false,
      "inputs": [],
      "name": "broker_de_registration",
      "outputs": [
        {
          "name": "",
          "type": "bool"
        }
      ],
      "payable": true,
      "stateMutability": "payable",
      "type": "function"
    },
    {
      "constant": false,
      "inputs": [
        {
          "name": "input_amount_to_withdraw",
          "type": "uint256"
        }
      ],
      "name": "broker_withdraw_amount_from_stake",
      "outputs": [
        {
          "name": "",
          "type": "bool"
        }
      ],
      "payable": true,
      "stateMutability": "payable",
      "type": "function"
    }
  ],
  "bytecode": "0x6060604052336000806101000a81548173ffffffffffffffffffffffffffffffffffffffff021916908373ffffffffffffffffffffffffffffffffffffffff160217905550613a0a806100536000396000f3006060604052600436106101a1576000357c0100000000000000000000000000000000000000000000000000000000900463ffffffff16806304d7afd9146101a357806311761ed2146101d35780631381909d146101f557806316dcd4cc146102225780631711c4a31461024f57806318be65d6146102785780631d002508146102ba578063214913a2146102ea5780632aa208f1146103135780633314b6e41461036957806336e7d1b5146103b657806338bd71ac146104075780633daa29a514610440578063541ddc98146104795780635660a546146104cf57806363b0e93b1461051c578063659df7941461057f578063670477bf146105b857806368c993f61461061b5780636c2d4b331461067157806376ac8c1a146106be57806377ba194e1461073c5780637b16dfb61461075e578063958e87181461078b578063a87edf93146107b4578063b3561e80146107eb578063bc9b159b1461081b578063bea1e33414610844578063e0988496146108c7578063f3f6b1991461092a578063f61cae4c14610a17578063f851a44014610a4e578063ff00692014610aa3575b005b6101b96004808035906020019091905050610acc565b604051808215151515815260200191505060405180910390f35b6101db610e88565b604051808215151515815260200191505060405180910390f35b341561020057600080fd5b610208610ffb565b604051808215151515815260200191505060405180910390f35b341561022d57600080fd5b610235611052565b604051808215151515815260200191505060405180910390f35b341561025a57600080fd5b61026261109f565b6040518082815260200191505060405180910390f35b341561028357600080fd5b61029960048080359060200190919050506110e9565b60405180831515151581526020018281526020019250505060405180910390f35b6102d0600480803590602001909190505061111a565b604051808215151515815260200191505060405180910390f35b34156102f557600080fd5b6102fd6112d3565b6040518082815260200191505060405180910390f35b341561031e57600080fd5b610353600480803573ffffffffffffffffffffffffffffffffffffffff1690602001909190803590602001909190505061131d565b6040518082815260200191505060405180910390f35b341561037457600080fd5b6103a0600480803573ffffffffffffffffffffffffffffffffffffffff1690602001909190505061134e565b6040518082815260200191505060405180910390f35b34156103c157600080fd5b6103ed600480803573ffffffffffffffffffffffffffffffffffffffff16906020019091905050611366565b604051808215151515815260200191505060405180910390f35b6104266004808035906020019091908035906020019091905050611386565b604051808215151515815260200191505060405180910390f35b61045f6004808035906020019091908035906020019091905050611a07565b604051808215151515815260200191505060405180910390f35b341561048457600080fd5b6104b9600480803573ffffffffffffffffffffffffffffffffffffffff16906020019091908035906020019091905050611e02565b6040518082815260200191505060405180910390f35b34156104da57600080fd5b610506600480803573ffffffffffffffffffffffffffffffffffffffff16906020019091905050611e27565b6040518082815260200191505060405180910390f35b341561052757600080fd5b61053d6004808035906020019091905050611e45565b604051808273ffffffffffffffffffffffffffffffffffffffff1673ffffffffffffffffffffffffffffffffffffffff16815260200191505060405180910390f35b61059e6004808035906020019091908035906020019091905050611e84565b604051808215151515815260200191505060405180910390f35b34156105c357600080fd5b6105d96004808035906020019091905050612892565b604051808273ffffffffffffffffffffffffffffffffffffffff1673ffffffffffffffffffffffffffffffffffffffff16815260200191505060405180910390f35b341561062657600080fd5b61065b600480803573ffffffffffffffffffffffffffffffffffffffff169060200190919080359060200190919050506128c5565b6040518082815260200191505060405180910390f35b341561067c57600080fd5b6106a8600480803573ffffffffffffffffffffffffffffffffffffffff169060200190919050506128ea565b6040518082815260200191505060405180910390f35b34156106c957600080fd5b6106e86004808035906020019091908035906020019091905050612902565b604051808481526020018373ffffffffffffffffffffffffffffffffffffffff1673ffffffffffffffffffffffffffffffffffffffff16815260200182151515158152602001935050505060405180910390f35b610744612966565b604051808215151515815260200191505060405180910390f35b341561076957600080fd5b610771612b8b565b604051808215151515815260200191505060405180910390f35b341561079657600080fd5b61079e612be6565b6040518082815260200191505060405180910390f35b34156107bf57600080fd5b6107d56004808035906020019091905050612bec565b6040518082815260200191505060405180910390f35b6108016004808035906020019091905050612c04565b604051808215151515815260200191505060405180910390f35b341561082657600080fd5b61082e61320e565b6040518082815260200191505060405180910390f35b6108a6600480803590602001908201803590602001908080601f0160208091040260200160405190810160405280939291908181526020018383808284378201915050505050509190803590602001909190803590602001909190505061321b565b60405180831515151581526020018281526020019250505060405180910390f35b34156108d257600080fd5b6108e860048080359060200190919050506136b5565b604051808273ffffffffffffffffffffffffffffffffffffffff1673ffffffffffffffffffffffffffffffffffffffff16815260200191505060405180910390f35b341561093557600080fd5b61096a600480803573ffffffffffffffffffffffffffffffffffffffff169060200190919080359060200190919050506136f9565b6040518085815260200180602001848152602001838152602001828103825285818154600181600116156101000203166002900481526020019150805460018160011615610100020316600290048015610a055780601f106109da57610100808354040283529160200191610a05565b820191906000526020600020905b8154815290600101906020018083116109e857829003601f168201915b50509550505050505060405180910390f35b3415610a2257600080fd5b610a386004808035906020019091905050613735565b6040518082815260200191505060405180910390f35b3415610a5957600080fd5b610a6161374d565b604051808273ffffffffffffffffffffffffffffffffffffffff1673ffffffffffffffffffffffffffffffffffffffff16815260200191505060405180910390f35b610aab613772565b60405180831515151581526020018281526020019250505060405180910390f35b600042603c600960006006600087815260200190815260200160002060009054906101000a900473ffffffffffffffffffffffffffffffffffffffff1673ffffffffffffffffffffffffffffffffffffffff1673ffffffffffffffffffffffffffffffffffffffff1681526020019081526020016000206000600a60006006600089815260200190815260200160002060009054906101000a900473ffffffffffffffffffffffffffffffffffffffff1673ffffffffffffffffffffffffffffffffffffffff1673ffffffffffffffffffffffffffffffffffffffff16815260200190815260200160002060008781526020019081526020016000205481526020019081526020016000206003015403111515610be857600080fd5b600034118015610c7c5750606434605a02811515610c0257fe5b04600360006006600086815260200190815260200160002060009054906101000a900473ffffffffffffffffffffffffffffffffffffffff1673ffffffffffffffffffffffffffffffffffffffff1673ffffffffffffffffffffffffffffffffffffffff1681526020019081526020016000206000015410155b1515610c8757600080fd5b34600460008481526020019081526020016000206000600560003373ffffffffffffffffffffffffffffffffffffffff1673ffffffffffffffffffffffffffffffffffffffff168152602001908152602001600020600086815260200190815260200160002054815260200190815260200160002060000160008282540192505081905550606434605a02811515610d1b57fe5b04600360006006600086815260200190815260200160002060009054906101000a900473ffffffffffffffffffffffffffffffffffffffff1673ffffffffffffffffffffffffffffffffffffffff1673ffffffffffffffffffffffffffffffffffffffff168152602001908152602001600020600001600082825403925050819055503460076000848152602001908152602001600020600082825401925050819055507fd51af916ec27930d708168315bc82401ecf73ab390083b9558a6fb4bba5cb09c6000809054906101000a900473ffffffffffffffffffffffffffffffffffffffff163334604051808473ffffffffffffffffffffffffffffffffffffffff1673ffffffffffffffffffffffffffffffffffffffff1681526020018373ffffffffffffffffffffffffffffffffffffffff1673ffffffffffffffffffffffffffffffffffffffff168152602001828152602001935050505060405180910390a160019050919050565b600034600360003373ffffffffffffffffffffffffffffffffffffffff1673ffffffffffffffffffffffffffffffffffffffff1681526020019081526020016000206000018190555060028054806001018281610ee591906138e1565b9160005260206000209001600033909190916101000a81548173ffffffffffffffffffffffffffffffffffffffff021916908373ffffffffffffffffffffffffffffffffffffffff160217905550507fd51af916ec27930d708168315bc82401ecf73ab390083b9558a6fb4bba5cb09c336000809054906101000a900473ffffffffffffffffffffffffffffffffffffffff1634604051808473ffffffffffffffffffffffffffffffffffffffff1673ffffffffffffffffffffffffffffffffffffffff1681526020018373ffffffffffffffffffffffffffffffffffffffff1673ffffffffffffffffffffffffffffffffffffffff168152602001828152602001935050505060405180910390a16001905090565b60003373ffffffffffffffffffffffffffffffffffffffff166000809054906101000a900473ffffffffffffffffffffffffffffffffffffffff1673ffffffffffffffffffffffffffffffffffffffff1614905090565b600080600360003373ffffffffffffffffffffffffffffffffffffffff1673ffffffffffffffffffffffffffffffffffffffff168152602001908152602001600020600001541415905090565b6000600c60003373ffffffffffffffffffffffffffffffffffffffff1673ffffffffffffffffffffffffffffffffffffffff16815260200190815260200160002080549050905090565b600b6020528060005260406000206000915090508060000160009054906101000a900460ff16908060010154905082565b6000808211801561116f57506001600360003373ffffffffffffffffffffffffffffffffffffffff1673ffffffffffffffffffffffffffffffffffffffff168152602001908152602001600020600001540382105b151561117a57600080fd5b81600360003373ffffffffffffffffffffffffffffffffffffffff1673ffffffffffffffffffffffffffffffffffffffff168152602001908152602001600020600001600082825403925050819055503373ffffffffffffffffffffffffffffffffffffffff166108fc839081150290604051600060405180830381858888f19350505050151561120a57600080fd5b7fd51af916ec27930d708168315bc82401ecf73ab390083b9558a6fb4bba5cb09c6000809054906101000a900473ffffffffffffffffffffffffffffffffffffffff163384604051808473ffffffffffffffffffffffffffffffffffffffff1673ffffffffffffffffffffffffffffffffffffffff1681526020018373ffffffffffffffffffffffffffffffffffffffff1673ffffffffffffffffffffffffffffffffffffffff168152602001828152602001935050505060405180910390a160019050919050565b6000600360003373ffffffffffffffffffffffffffffffffffffffff1673ffffffffffffffffffffffffffffffffffffffff16815260200190815260200160002060000154905090565b600c6020528160005260406000208181548110151561133857fe5b9060005260206000209001600091509150505481565b600f6020528060005260406000206000915090505481565b600e6020528060005260406000206000915054906101000a900460ff1681565b60008042603c600960006006600089815260200190815260200160002060009054906101000a900473ffffffffffffffffffffffffffffffffffffffff1673ffffffffffffffffffffffffffffffffffffffff1673ffffffffffffffffffffffffffffffffffffffff1681526020019081526020016000206000600a6000600660008b815260200190815260200160002060009054906101000a900473ffffffffffffffffffffffffffffffffffffffff1673ffffffffffffffffffffffffffffffffffffffff1673ffffffffffffffffffffffffffffffffffffffff168152602001908152602001600020600089815260200190815260200160002054815260200190815260200160002060030154031115156114a357600080fd5b6000341180156115375750606434605a028115156114bd57fe5b04600360006006600088815260200190815260200160002060009054906101000a900473ffffffffffffffffffffffffffffffffffffffff1673ffffffffffffffffffffffffffffffffffffffff1673ffffffffffffffffffffffffffffffffffffffff1681526020019081526020016000206000015410155b151561154257600080fd5b6000600560003373ffffffffffffffffffffffffffffffffffffffff1673ffffffffffffffffffffffffffffffffffffffff1681526020019081526020016000206000868152602001908152602001600020541415156115a157600080fd5b60018314806115b05750600083145b15156115bb57600080fd5b60018314156115cd57600190506115dc565b60008314156115db57600090505b5b6008600085815260200190815260200160002060008154809291906001019190505550606434605a0281151561160e57fe5b04600360006006600088815260200190815260200160002060009054906101000a900473ffffffffffffffffffffffffffffffffffffffff1673ffffffffffffffffffffffffffffffffffffffff1673ffffffffffffffffffffffffffffffffffffffff1681526020019081526020016000206000016000828254039250508190555060001515600e60003373ffffffffffffffffffffffffffffffffffffffff1673ffffffffffffffffffffffffffffffffffffffff16815260200190815260200160002060009054906101000a900460ff1615151415611743576001600e60003373ffffffffffffffffffffffffffffffffffffffff1673ffffffffffffffffffffffffffffffffffffffff16815260200190815260200160002060006101000a81548160ff0219169083151502179055505b346004600086815260200190815260200160002060006008600088815260200190815260200160002054815260200190815260200160002060000181905550336004600086815260200190815260200160002060006008600088815260200190815260200160002054815260200190815260200160002060010160006101000a81548173ffffffffffffffffffffffffffffffffffffffff021916908373ffffffffffffffffffffffffffffffffffffffff160217905550806004600086815260200190815260200160002060006008600088815260200190815260200160002054815260200190815260200160002060010160146101000a81548160ff0219169083151502179055506008600085815260200190815260200160002054600560003373ffffffffffffffffffffffffffffffffffffffff1673ffffffffffffffffffffffffffffffffffffffff168152602001908152602001600020600086815260200190815260200160002081905550346007600086815260200190815260200160002060008282540192505081905550600c60003373ffffffffffffffffffffffffffffffffffffffff1673ffffffffffffffffffffffffffffffffffffffff1681526020019081526020016000208054806001018281611927919061390d565b9160005260206000209001600086909190915055507fd51af916ec27930d708168315bc82401ecf73ab390083b9558a6fb4bba5cb09c336000809054906101000a900473ffffffffffffffffffffffffffffffffffffffff1634604051808473ffffffffffffffffffffffffffffffffffffffff1673ffffffffffffffffffffffffffffffffffffffff1681526020018373ffffffffffffffffffffffffffffffffffffffff1673ffffffffffffffffffffffffffffffffffffffff168152602001828152602001935050505060405180910390a1600191505092915050565b6000600460008481526020019081526020016000206000600560003373ffffffffffffffffffffffffffffffffffffffff1673ffffffffffffffffffffffffffffffffffffffff1681526020019081526020016000206000868152602001908152602001600020548152602001908152602001600020600001546706f05b59d3b2000011151515611a9757600080fd5b600082111515611aa657600080fd5b42603c600960006006600088815260200190815260200160002060009054906101000a900473ffffffffffffffffffffffffffffffffffffffff1673ffffffffffffffffffffffffffffffffffffffff1673ffffffffffffffffffffffffffffffffffffffff1681526020019081526020016000206000600a6000600660008a815260200190815260200160002060009054906101000a900473ffffffffffffffffffffffffffffffffffffffff1673ffffffffffffffffffffffffffffffffffffffff1673ffffffffffffffffffffffffffffffffffffffff16815260200190815260200160002060008881526020019081526020016000205481526020019081526020016000206003015403111515611bc057600080fd5b81600460008581526020019081526020016000206000600560003373ffffffffffffffffffffffffffffffffffffffff1673ffffffffffffffffffffffffffffffffffffffff168152602001908152602001600020600087815260200190815260200160002054815260200190815260200160002060000160008282540392505081905550606482605a02811515611c5457fe5b04600360006006600087815260200190815260200160002060009054906101000a900473ffffffffffffffffffffffffffffffffffffffff1673ffffffffffffffffffffffffffffffffffffffff1673ffffffffffffffffffffffffffffffffffffffff168152602001908152602001600020600001600082825401925050819055508160076000858152602001908152602001600020600082825403925050819055503373ffffffffffffffffffffffffffffffffffffffff166108fc839081150290604051600060405180830381858888f193505050501515611d3857600080fd5b7fd51af916ec27930d708168315bc82401ecf73ab390083b9558a6fb4bba5cb09c336000809054906101000a900473ffffffffffffffffffffffffffffffffffffffff1684604051808473ffffffffffffffffffffffffffffffffffffffff1673ffffffffffffffffffffffffffffffffffffffff1681526020018373ffffffffffffffffffffffffffffffffffffffff1673ffffffffffffffffffffffffffffffffffffffff168152602001828152602001935050505060405180910390a16001905092915050565b6005602052816000526040600020602052806000526040600020600091509150505481565b60036020528060005260406000206000915090508060000154905081565b600281815481101515611e5457fe5b90600052602060002090016000915054906101000a900473ffffffffffffffffffffffffffffffffffffffff1681565b60008060003373ffffffffffffffffffffffffffffffffffffffff166000809054906101000a900473ffffffffffffffffffffffffffffffffffffffff1673ffffffffffffffffffffffffffffffffffffffff16141515611ee457600080fd5b42600960006006600089815260200190815260200160002060009054906101000a900473ffffffffffffffffffffffffffffffffffffffff1673ffffffffffffffffffffffffffffffffffffffff1673ffffffffffffffffffffffffffffffffffffffff1681526020019081526020016000206000600a6000600660008b815260200190815260200160002060009054906101000a900473ffffffffffffffffffffffffffffffffffffffff1673ffffffffffffffffffffffffffffffffffffffff1673ffffffffffffffffffffffffffffffffffffffff168152602001908152602001600020600089815260200190815260200160002054815260200190815260200160002060030154101515611ffb57600080fd5b60001515600b600087815260200190815260200160002060000160009054906101000a900460ff16151514151561203157600080fd5b600384108015612042575060008410155b151561204d57600080fd5b6001600b600087815260200190815260200160002060000160006101000a81548160ff02191690831515021790555083600b600087815260200190815260200160002060010181905550600860008681526020019081526020016000205490506002841415612456575b600060086000878152602001908152602001600020541115612435576000600460008781526020019081526020016000206000600860008981526020019081526020016000205481526020019081526020016000206000015414151561240c5760646004600087815260200190815260200160002060006008600089815260200190815260200160002054815260200190815260200160002060000154605a0281151561216057fe5b04600360006006600089815260200190815260200160002060009054906101000a900473ffffffffffffffffffffffffffffffffffffffff1673ffffffffffffffffffffffffffffffffffffffff1673ffffffffffffffffffffffffffffffffffffffff168152602001908152602001600020600001600082825401925050819055506004600086815260200190815260200160002060006008600088815260200190815260200160002054815260200190815260200160002060010160009054906101000a900473ffffffffffffffffffffffffffffffffffffffff1673ffffffffffffffffffffffffffffffffffffffff166108fc600460008881526020019081526020016000206000600860008a8152602001908152602001600020548152602001908152602001600020600001549081150290604051600060405180830381858888f1935050505015156122b757600080fd5b7fd51af916ec27930d708168315bc82401ecf73ab390083b9558a6fb4bba5cb09c6000809054906101000a900473ffffffffffffffffffffffffffffffffffffffff16600460008881526020019081526020016000206000600860008a815260200190815260200160002054815260200190815260200160002060010160009054906101000a900473ffffffffffffffffffffffffffffffffffffffff16600460008981526020019081526020016000206000600860008b815260200190815260200160002054815260200190815260200160002060000154604051808473ffffffffffffffffffffffffffffffffffffffff1673ffffffffffffffffffffffffffffffffffffffff1681526020018373ffffffffffffffffffffffffffffffffffffffff1673ffffffffffffffffffffffffffffffffffffffff168152602001828152602001935050505060405180910390a15b6008600086815260200190815260200160002060008154809291906001900391905055506120b7565b8060086000878152602001908152602001600020819055506001925061288a565b60018414156124685760019150612477565b600084141561247657600091505b5b5b60006008600087815260200190815260200160002054111561286d5760006004600087815260200190815260200160002060006008600089815260200190815260200160002054815260200190815260200160002060000154141515612844576004600086815260200190815260200160002060006008600088815260200190815260200160002054815260200190815260200160002060010160149054906101000a900460ff1615158215151415612776576004600086815260200190815260200160002060006008600088815260200190815260200160002054815260200190815260200160002060010160009054906101000a900473ffffffffffffffffffffffffffffffffffffffff1673ffffffffffffffffffffffffffffffffffffffff166108fc6064600460008981526020019081526020016000206000600860008b81526020019081526020016000205481526020019081526020016000206000015460bd028115156125e857fe5b049081150290604051600060405180830381858888f19350505050151561260e57600080fd5b7fd51af916ec27930d708168315bc82401ecf73ab390083b9558a6fb4bba5cb09c6000809054906101000a900473ffffffffffffffffffffffffffffffffffffffff16600460008881526020019081526020016000206000600860008a815260200190815260200160002054815260200190815260200160002060010160009054906101000a900473ffffffffffffffffffffffffffffffffffffffff166064600460008a81526020019081526020016000206000600860008c81526020019081526020016000205481526020019081526020016000206000015460bd028115156126f557fe5b04604051808473ffffffffffffffffffffffffffffffffffffffff1673ffffffffffffffffffffffffffffffffffffffff1681526020018373ffffffffffffffffffffffffffffffffffffffff1673ffffffffffffffffffffffffffffffffffffffff168152602001828152602001935050505060405180910390a1612843565b6064600460008781526020019081526020016000206000600860008981526020019081526020016000205481526020019081526020016000206000015460c7028115156127bf57fe5b04600360006006600089815260200190815260200160002060009054906101000a900473ffffffffffffffffffffffffffffffffffffffff1673ffffffffffffffffffffffffffffffffffffffff1673ffffffffffffffffffffffffffffffffffffffff168152602001908152602001600020600001600082825401925050819055505b5b600860008681526020019081526020016000206000815480929190600190039190505550612478565b806008600087815260200190815260200160002081905550600192505b505092915050565b60066020528060005260406000206000915054906101000a900473ffffffffffffffffffffffffffffffffffffffff1681565b600a602052816000526040600020602052806000526040600020600091509150505481565b600d6020528060005260406000206000915090505481565b6004602052816000526040600020602052806000526040600020600091509150508060000154908060010160009054906101000a900473ffffffffffffffffffffffffffffffffffffffff16908060010160149054906101000a900460ff16905083565b600042603c600f60003373ffffffffffffffffffffffffffffffffffffffff1673ffffffffffffffffffffffffffffffffffffffff16815260200190815260200160002054011015156129b857600080fd5b3373ffffffffffffffffffffffffffffffffffffffff166108fc600360003373ffffffffffffffffffffffffffffffffffffffff1673ffffffffffffffffffffffffffffffffffffffff168152602001908152602001600020600001549081150290604051600060405180830381858888f193505050501515612a3a57600080fd5b6000600360003373ffffffffffffffffffffffffffffffffffffffff1673ffffffffffffffffffffffffffffffffffffffff168152602001908152602001600020600001819055507fd51af916ec27930d708168315bc82401ecf73ab390083b9558a6fb4bba5cb09c6000809054906101000a900473ffffffffffffffffffffffffffffffffffffffff1633600360003373ffffffffffffffffffffffffffffffffffffffff1673ffffffffffffffffffffffffffffffffffffffff16815260200190815260200160002060000154604051808473ffffffffffffffffffffffffffffffffffffffff1673ffffffffffffffffffffffffffffffffffffffff1681526020018373ffffffffffffffffffffffffffffffffffffffff1673ffffffffffffffffffffffffffffffffffffffff168152602001828152602001935050505060405180910390a16001905090565b600060011515600e60003373ffffffffffffffffffffffffffffffffffffffff1673ffffffffffffffffffffffffffffffffffffffff16815260200190815260200160002060009054906101000a900460ff16151514905090565b60015481565b60076020528060005260406000206000915090505481565b600042603c600960006006600087815260200190815260200160002060009054906101000a900473ffffffffffffffffffffffffffffffffffffffff1673ffffffffffffffffffffffffffffffffffffffff1673ffffffffffffffffffffffffffffffffffffffff1681526020019081526020016000206000600a60006006600089815260200190815260200160002060009054906101000a900473ffffffffffffffffffffffffffffffffffffffff1673ffffffffffffffffffffffffffffffffffffffff1673ffffffffffffffffffffffffffffffffffffffff16815260200190815260200160002060008781526020019081526020016000205481526020019081526020016000206003015403111515612d2057600080fd5b600460008381526020019081526020016000206000600560003373ffffffffffffffffffffffffffffffffffffffff1673ffffffffffffffffffffffffffffffffffffffff168152602001908152602001600020600085815260200190815260200160002054815260200190815260200160002060010160009054906101000a900473ffffffffffffffffffffffffffffffffffffffff1673ffffffffffffffffffffffffffffffffffffffff166108fc6064600460008681526020019081526020016000206000600560003373ffffffffffffffffffffffffffffffffffffffff1673ffffffffffffffffffffffffffffffffffffffff168152602001908152602001600020600088815260200190815260200160002054815260200190815260200160002060000154605f02811515612e5757fe5b049081150290604051600060405180830381858888f193505050501515612e7d57600080fd5b6064600460008481526020019081526020016000206000600560003373ffffffffffffffffffffffffffffffffffffffff1673ffffffffffffffffffffffffffffffffffffffff168152602001908152602001600020600086815260200190815260200160002054815260200190815260200160002060000154605f02811515612f0357fe5b04600360006006600086815260200190815260200160002060009054906101000a900473ffffffffffffffffffffffffffffffffffffffff1673ffffffffffffffffffffffffffffffffffffffff1673ffffffffffffffffffffffffffffffffffffffff16815260200190815260200160002060000160008282540192505081905550600460008381526020019081526020016000206000600560003373ffffffffffffffffffffffffffffffffffffffff1673ffffffffffffffffffffffffffffffffffffffff16815260200190815260200160002060008581526020019081526020016000205481526020019081526020016000206000015460076000848152602001908152602001600020600082825403925050819055506000600460008481526020019081526020016000206000600560003373ffffffffffffffffffffffffffffffffffffffff1673ffffffffffffffffffffffffffffffffffffffff1681526020019081526020016000206000868152602001908152602001600020548152602001908152602001600020600001819055506008600083815260200190815260200160002060008154809291906001900391905055507fd51af916ec27930d708168315bc82401ecf73ab390083b9558a6fb4bba5cb09c6000809054906101000a900473ffffffffffffffffffffffffffffffffffffffff16336064600460008781526020019081526020016000206000600560003373ffffffffffffffffffffffffffffffffffffffff1673ffffffffffffffffffffffffffffffffffffffff168152602001908152602001600020600089815260200190815260200160002054815260200190815260200160002060000154605f0281151561318957fe5b04604051808473ffffffffffffffffffffffffffffffffffffffff1673ffffffffffffffffffffffffffffffffffffffff1681526020018373ffffffffffffffffffffffffffffffffffffffff1673ffffffffffffffffffffffffffffffffffffffff168152602001828152602001935050505060405180910390a160019050919050565b6000600280549050905090565b600080428311151561322c57600080fd5b84600960003373ffffffffffffffffffffffffffffffffffffffff1673ffffffffffffffffffffffffffffffffffffffff1681526020019081526020016000206000600d60003373ffffffffffffffffffffffffffffffffffffffff1673ffffffffffffffffffffffffffffffffffffffff16815260200190815260200160002054815260200190815260200160002060010190805190602001906132d2929190613939565b5083600960003373ffffffffffffffffffffffffffffffffffffffff1673ffffffffffffffffffffffffffffffffffffffff1681526020019081526020016000206000600d60003373ffffffffffffffffffffffffffffffffffffffff1673ffffffffffffffffffffffffffffffffffffffff1681526020019081526020016000205481526020019081526020016000206002018190555082600960003373ffffffffffffffffffffffffffffffffffffffff1673ffffffffffffffffffffffffffffffffffffffff1681526020019081526020016000206000600d60003373ffffffffffffffffffffffffffffffffffffffff1673ffffffffffffffffffffffffffffffffffffffff16815260200190815260200160002054815260200190815260200160002060030181905550600154600960003373ffffffffffffffffffffffffffffffffffffffff1673ffffffffffffffffffffffffffffffffffffffff1681526020019081526020016000206000600d60003373ffffffffffffffffffffffffffffffffffffffff1673ffffffffffffffffffffffffffffffffffffffff168152602001908152602001600020548152602001908152602001600020600001819055506000600b6000600154815260200190815260200160002060000160006101000a81548160ff021916908315150217905550600d60003373ffffffffffffffffffffffffffffffffffffffff1673ffffffffffffffffffffffffffffffffffffffff16815260200190815260200160002054600a60003373ffffffffffffffffffffffffffffffffffffffff1673ffffffffffffffffffffffffffffffffffffffff168152602001908152602001600020600060015481526020019081526020016000208190555082600f60003373ffffffffffffffffffffffffffffffffffffffff1673ffffffffffffffffffffffffffffffffffffffff1681526020019081526020016000205410156135ed5782600f60003373ffffffffffffffffffffffffffffffffffffffff1673ffffffffffffffffffffffffffffffffffffffff168152602001908152602001600020819055505b3360066000600154815260200190815260200160002060006101000a81548173ffffffffffffffffffffffffffffffffffffffff021916908373ffffffffffffffffffffffffffffffffffffffff160217905550600160008154809291906001019190505550600d60003373ffffffffffffffffffffffffffffffffffffffff1673ffffffffffffffffffffffffffffffffffffffff168152602001908152602001600020600081548092919060010191905055506001806001540391509150935093915050565b60006002828154811015156136c657fe5b906000526020600020900160009054906101000a900473ffffffffffffffffffffffffffffffffffffffff169050919050565b60096020528160005260406000206020528060005260406000206000915091505080600001549080600101908060020154908060030154905084565b60086020528060005260406000206000915090505481565b6000809054906101000a900473ffffffffffffffffffffffffffffffffffffffff1681565b60008060003411151561378457600080fd5b34600360003373ffffffffffffffffffffffffffffffffffffffff1673ffffffffffffffffffffffffffffffffffffffff168152602001908152602001600020600001600082825401925050819055507fd51af916ec27930d708168315bc82401ecf73ab390083b9558a6fb4bba5cb09c336000809054906101000a900473ffffffffffffffffffffffffffffffffffffffff1634604051808473ffffffffffffffffffffffffffffffffffffffff1673ffffffffffffffffffffffffffffffffffffffff1681526020018373ffffffffffffffffffffffffffffffffffffffff1673ffffffffffffffffffffffffffffffffffffffff168152602001828152602001935050505060405180910390a16001600360003373ffffffffffffffffffffffffffffffffffffffff1673ffffffffffffffffffffffffffffffffffffffff16815260200190815260200160002060000154915091509091565b8154818355818115116139085781836000526020600020918201910161390791906139b9565b5b505050565b8154818355818115116139345781836000526020600020918201910161393391906139b9565b5b505050565b828054600181600116156101000203166002900490600052602060002090601f016020900481019282601f1061397a57805160ff19168380011785556139a8565b828001600101855582156139a8579182015b828111156139a757825182559160200191906001019061398c565b5b5090506139b591906139b9565b5090565b6139db91905b808211156139d75760008160009055506001016139bf565b5090565b905600a165627a7a72305820b9efbba6e912691233551a9252bbf0ebecab0222c364b65de8193900fa744c350029",
  "source": "pragma solidity ^0.4.0;\r\ncontract High_low\r\n{\r\n    address public admin;\r\n    uint256 public game_id;\r\n    \r\n    function High_low() public payable\r\n    {\r\n        admin=msg.sender;\r\n    }\r\n    \r\n    function() public payable {}\r\n    \r\n    address[] public broker_addresses;\r\n    \r\n    event Transfer_amount(address _sender,address _receiver,uint256 _transfer_amount);\r\n    \r\n    struct  broker\r\n    {\r\n        uint256 stake_amount;\r\n    }\r\n    mapping(address=>broker) public broker_map;\r\n    \r\n    struct better\r\n    {\r\n        uint256 bet_amount; \r\n        address better_address;\r\n        bool option;\r\n    }\r\n    mapping(uint256=>mapping(uint256=>better)) public game_id_map_trader;//key: bet_id  value:betting     \"for UI get index of struct from struct_index_of_bet_of_trader\" \r\n    \r\n    mapping(address=>mapping(uint256=>uint256)) public struct_index_of_bet_of_trader;//trader ,game_id value:index\r\n    \r\n    mapping(uint256=>address) public game_id_map_broker;//key:game_id\r\n    \r\n    mapping(uint256=>uint256) public total_bet_amount; //key: gameid  value:total bet amount of that particular bet\r\n    \r\n    mapping(uint256=>uint256) public gamers_map;//key:game_id value:gamers how many gamers playing this game\r\n    \r\n    struct game_set\r\n    {\r\n        uint256 game_ids;\r\n        string stock_name;\r\n        uint256 strike_price;\r\n        uint256 expiry_time;\r\n    }\r\n    mapping(address=>mapping(uint256=>game_set)) public game_set_map;//key1:broker_address key2:game_number     \"for UI get index of struct for broker get from struct_index_of_bet_of_broker\" \r\n    \r\n    mapping(address=>mapping(uint256=>uint256)) public struct_index_of_bet_of_broker;//broker ,game_id value:index     \r\n    \r\n    struct result_status\r\n    {\r\n        bool is_result_published;\r\n        uint256 final_option;\r\n    }\r\n    mapping(uint256=>result_status) public result_map;//to check is_result_published \r\n    \r\n    mapping(address=>uint256[]) public trader_betted_games; //key:trader address \r\n    \r\n    mapping(address=>uint256) public game_number;//key:broker value:game_number\r\n    \r\n    mapping(address=>bool) public valid_trader;//to accept as valid trader\r\n    \r\n    mapping(address=>uint256) public maximum_expiry_time_of_bet;\r\n\r\n    function view_stake() constant public returns(uint256)\r\n    {\r\n        return broker_map[msg.sender].stake_amount;\r\n    }\r\n    \r\n    function check_broker() public constant returns(bool) // is_broker\r\n    {\r\n        return broker_map[msg.sender].stake_amount!=0;\r\n    }\r\n    \r\n    function add_broker() public payable returns (bool) // is_added\r\n    {\r\n         broker_map[msg.sender].stake_amount=msg.value;\r\n         broker_addresses.push(msg.sender);\r\n         Transfer_amount(msg.sender,admin,msg.value);\r\n         return true;\r\n    }\r\n    \r\n    function length_of_broker_addresses() public constant returns(uint256)\r\n    {\r\n        return broker_addresses.length;\r\n    }\r\n    \r\n    function get_broker_address(uint256 _index) public constant returns(address)\r\n    {\r\n        return broker_addresses[_index];\r\n    }\r\n    \r\n    function check_admin() public constant returns(bool)\r\n    {\r\n        return admin==msg.sender;    \r\n    }\r\n    \r\n    function length_of_trader_betted_games() public constant returns(uint256)\r\n    {\r\n        return trader_betted_games[msg.sender].length;\r\n    }\r\n    \r\n    function broker_set_game(string _stock_name,uint256 _strike_price,uint256 _expiry_time) public payable returns(bool,uint256) // newbet, new_game_id\r\n    {\r\n        require(_expiry_time>now);\r\n        game_set_map[msg.sender][game_number[msg.sender]].stock_name=_stock_name;\r\n        game_set_map[msg.sender][game_number[msg.sender]].strike_price=_strike_price;\r\n        game_set_map[msg.sender][game_number[msg.sender]].expiry_time=_expiry_time;\r\n        game_set_map[msg.sender][game_number[msg.sender]].game_ids=game_id;\r\n        result_map[game_id].is_result_published=false;\r\n        struct_index_of_bet_of_broker[msg.sender][game_id]=game_number[msg.sender];//address=>mapping(uint256=>uint256)) public struct_index_of_bet_of_broker;//broker ,game_id value:index\r\n        if(maximum_expiry_time_of_bet[msg.sender]<_expiry_time)\r\n        maximum_expiry_time_of_bet[msg.sender]=_expiry_time;\r\n        game_id_map_broker[game_id]=msg.sender;\r\n        game_id++;\r\n        game_number[msg.sender]++;\r\n        return (true,(game_id-1));\r\n    }\r\n    \r\n    function add_broker_stake() public payable returns(bool,uint256) //amount_added , stake_amount_is\r\n    {\r\n        require(msg.value>0);\r\n        broker_map[msg.sender].stake_amount+=msg.value;\r\n        Transfer_amount(msg.sender,admin,msg.value);\r\n        return (true,broker_map[msg.sender].stake_amount);\r\n    }\r\n    \r\n    function check_trader() public constant returns(bool) //is_already_a_trader\r\n    {\r\n        return valid_trader[msg.sender]==true;\r\n    }\r\n        \r\n    function betting(uint256 _game_id,uint256 _choice) public payable returns(bool) // is_bet_success \r\n    {\r\n        require(game_set_map[game_id_map_broker[_game_id]][struct_index_of_bet_of_broker[game_id_map_broker[_game_id]][_game_id]].expiry_time - 1 minutes>now);\r\n        require(msg.value>0 && broker_map[game_id_map_broker[_game_id]].stake_amount>=(90*msg.value)/100);\r\n        require(struct_index_of_bet_of_trader[msg.sender][_game_id] == 0);\r\n        require(_choice==1||_choice==0);\r\n        bool _option;\r\n        if(_choice==1)\r\n        {\r\n            _option=true;\r\n        }\r\n        else if(_choice==0)\r\n        {\r\n            _option=false;\r\n        }\r\n        gamers_map[_game_id]++;\r\n        broker_map[game_id_map_broker[_game_id]].stake_amount-=(90*msg.value)/100;\r\n        if(valid_trader[msg.sender]==false)\r\n        valid_trader[msg.sender]=true;//new trader\r\n        game_id_map_trader[_game_id][gamers_map[_game_id]].bet_amount=msg.value;\r\n        game_id_map_trader[_game_id][gamers_map[_game_id]].better_address=msg.sender;\r\n        game_id_map_trader[_game_id][gamers_map[_game_id]].option=_option;\r\n        struct_index_of_bet_of_trader[msg.sender][_game_id]=gamers_map[_game_id];\r\n        total_bet_amount[_game_id]+=msg.value;\r\n        trader_betted_games[msg.sender].push(_game_id);\r\n        Transfer_amount(msg.sender,admin,msg.value);\r\n        return true;\r\n    }\r\n    \r\n    function admin_setting_result_and_distribute_money(uint256 _game_id,uint256 result_options) public payable returns(bool)// is_result_setted_and_prize_distributed \r\n    {\r\n        require(admin==msg.sender);\r\n        require(game_set_map[game_id_map_broker[_game_id]][struct_index_of_bet_of_broker[game_id_map_broker[_game_id]][_game_id]].expiry_time<now);\r\n        require(result_map[_game_id].is_result_published==false);\r\n        require(result_options<3 && result_options>=0);\r\n        result_map[_game_id].is_result_published=true;\r\n        result_map[_game_id].final_option=result_options;\r\n        bool result_option;\r\n        uint256 index=gamers_map[_game_id];\r\n        if(result_options==2)\r\n        {\r\n            //draw\r\n            while(gamers_map[_game_id]>0)\r\n            {\r\n                if(game_id_map_trader[_game_id][gamers_map[_game_id]].bet_amount!=0)\r\n                {\r\n                    broker_map[game_id_map_broker[_game_id]].stake_amount+=(90*game_id_map_trader[_game_id][gamers_map[_game_id]].bet_amount)/100;\r\n                    game_id_map_trader[_game_id][gamers_map[_game_id]].better_address.transfer(game_id_map_trader[_game_id][gamers_map[_game_id]].bet_amount);\r\n                    Transfer_amount(admin,game_id_map_trader[_game_id][gamers_map[_game_id]].better_address,game_id_map_trader[_game_id][gamers_map[_game_id]].bet_amount);//trader transfer\r\n                }\r\n                gamers_map[_game_id]--;\r\n            }\r\n            gamers_map[_game_id]=index;\r\n            return true;\r\n        }\r\n        else if(result_options==1)\r\n        {\r\n            //set high as result_option\r\n            result_option=true;\r\n        }\r\n        else if(result_options==0)\r\n        {\r\n            //set low as result_option\r\n            result_option=false;\r\n        }\r\n        while(gamers_map[_game_id]>0)\r\n        {\r\n            if(game_id_map_trader[_game_id][gamers_map[_game_id]].bet_amount!=0)\r\n            {\r\n                if(result_option==game_id_map_trader[_game_id][gamers_map[_game_id]].option)\r\n                {\r\n                    game_id_map_trader[_game_id][gamers_map[_game_id]].better_address.transfer((189*game_id_map_trader[_game_id][gamers_map[_game_id]].bet_amount)/100);\r\n                    Transfer_amount(admin,game_id_map_trader[_game_id][gamers_map[_game_id]].better_address,(189*game_id_map_trader[_game_id][gamers_map[_game_id]].bet_amount)/100);//transfer amount to trader\r\n                }\r\n                else\r\n                {\r\n                    broker_map[game_id_map_broker[_game_id]].stake_amount+=(199*game_id_map_trader[_game_id][gamers_map[_game_id]].bet_amount)/100;\r\n                }\r\n            }\r\n            gamers_map[_game_id]--;\r\n        }\r\n        gamers_map[_game_id]=index;\r\n        return true;\r\n    }\r\n    \r\n    function trader_increase_bet_amount(uint256 _game_id) public payable returns(bool)// is_increase_success\r\n    {\r\n        require(game_set_map[game_id_map_broker[_game_id]][struct_index_of_bet_of_broker[game_id_map_broker[_game_id]][_game_id]].expiry_time - 1 minutes>now);\r\n        require(msg.value>0 && broker_map[game_id_map_broker[_game_id]].stake_amount>=(90*msg.value)/100);\r\n        game_id_map_trader[_game_id][struct_index_of_bet_of_trader[msg.sender][_game_id]].bet_amount+=msg.value;\r\n        broker_map[game_id_map_broker[_game_id]].stake_amount-=(90*msg.value)/100;\r\n        total_bet_amount[_game_id]+=msg.value;\r\n        Transfer_amount(admin,msg.sender,msg.value);\r\n        return true;\r\n    }\r\n    \r\n    function trader_decrease_bet_amount(uint256 _game_id,uint256 input_amount) public payable returns(bool)// is_increase_success\r\n    {\r\n        require(500000000000000000<=game_id_map_trader[_game_id][struct_index_of_bet_of_trader[msg.sender][_game_id]].bet_amount);\r\n        require(input_amount>0);\r\n        require(game_set_map[game_id_map_broker[_game_id]][struct_index_of_bet_of_broker[game_id_map_broker[_game_id]][_game_id]].expiry_time - 1 minutes>now);\r\n        game_id_map_trader[_game_id][struct_index_of_bet_of_trader[msg.sender][_game_id]].bet_amount-=input_amount;\r\n        broker_map[game_id_map_broker[_game_id]].stake_amount+=(90*input_amount)/100;\r\n        total_bet_amount[_game_id]-=input_amount;\r\n        msg.sender.transfer(input_amount);\r\n        Transfer_amount(msg.sender,admin,input_amount);\r\n        return true;\r\n    }\r\n    \r\n    function trader_cancel_bet_and_widthdraw(uint256 _game_id) public payable returns(bool)// is_withdraw_success\r\n    {\r\n        require(game_set_map[game_id_map_broker[_game_id]][struct_index_of_bet_of_broker[game_id_map_broker[_game_id]][_game_id]].expiry_time - 1 minutes>now);\r\n        game_id_map_trader[_game_id][struct_index_of_bet_of_trader[msg.sender][_game_id]].better_address.transfer((95*game_id_map_trader[_game_id][struct_index_of_bet_of_trader[msg.sender][_game_id]].bet_amount)/100);\r\n        broker_map[game_id_map_broker[_game_id]].stake_amount+=(95*game_id_map_trader[_game_id][struct_index_of_bet_of_trader[msg.sender][_game_id]].bet_amount)/100;\r\n        total_bet_amount[_game_id]-=game_id_map_trader[_game_id][struct_index_of_bet_of_trader[msg.sender][_game_id]].bet_amount;\r\n        game_id_map_trader[_game_id][struct_index_of_bet_of_trader[msg.sender][_game_id]].bet_amount=0;\r\n        gamers_map[_game_id]--;\r\n        Transfer_amount(admin,msg.sender,(95*game_id_map_trader[_game_id][struct_index_of_bet_of_trader[msg.sender][_game_id]].bet_amount)/100);\r\n        return true;\r\n    }\r\n    \r\n    function broker_de_registration() public payable returns(bool) // is_de_registered\r\n    {\r\n        require(maximum_expiry_time_of_bet[msg.sender] + 1 minutes < now);\r\n        msg.sender.transfer(broker_map[msg.sender].stake_amount);\r\n        broker_map[msg.sender].stake_amount=0;\r\n        Transfer_amount(admin,msg.sender,broker_map[msg.sender].stake_amount);\r\n        return true;\r\n    }\r\n    \r\n    function broker_withdraw_amount_from_stake(uint256 input_amount_to_withdraw) public payable returns(bool) // is_de_registered\r\n    {\r\n        require(input_amount_to_withdraw>0 && input_amount_to_withdraw < broker_map[msg.sender].stake_amount-1);\r\n        broker_map[msg.sender].stake_amount-=input_amount_to_withdraw;\r\n        msg.sender.transfer(input_amount_to_withdraw);\r\n        Transfer_amount(admin,msg.sender,input_amount_to_withdraw);\r\n        return true;\r\n    }\r\n}",
  "sourcePath": "D:\\BinaryOptions\\contracts\\High_low.sol",
  "compiler": {
    "name": "solc",
    "version": "0.4.19+commit.c4cbbb05.Emscripten.clang"
  },
  "schemaVersion": "2.0.0",
  "updatedAt": "2018-04-09T09:19:56.123Z"
}